{
  "address": "0xAaa46e0dE3CA6031dDD391da653FCedF5cb32a84",
  "abi": [
    {
      "inputs": [
        {
          "internalType": "address",
          "name": "_usdc",
          "type": "address"
        }
      ],
      "stateMutability": "nonpayable",
      "type": "constructor"
    },
    {
      "inputs": [
        {
          "internalType": "address",
          "name": "owner",
          "type": "address"
        }
      ],
      "name": "OwnableInvalidOwner",
      "type": "error"
    },
    {
      "inputs": [
        {
          "internalType": "address",
          "name": "account",
          "type": "address"
        }
      ],
      "name": "OwnableUnauthorizedAccount",
      "type": "error"
    },
    {
      "inputs": [
        {
          "internalType": "address",
          "name": "token",
          "type": "address"
        }
      ],
      "name": "SafeERC20FailedOperation",
      "type": "error"
    },
    {
      "anonymous": false,
      "inputs": [
        {
          "indexed": true,
          "internalType": "address",
          "name": "from",
          "type": "address"
        },
        {
          "indexed": false,
          "internalType": "uint256",
          "name": "amount",
          "type": "uint256"
        }
      ],
      "name": "Funded",
      "type": "event"
    },
    {
      "anonymous": false,
      "inputs": [
        {
          "indexed": true,
          "internalType": "address",
          "name": "previousOwner",
          "type": "address"
        },
        {
          "indexed": true,
          "internalType": "address",
          "name": "newOwner",
          "type": "address"
        }
      ],
      "name": "OwnershipTransferred",
      "type": "event"
    },
    {
      "anonymous": false,
      "inputs": [
        {
          "indexed": false,
          "internalType": "uint256",
          "name": "amount",
          "type": "uint256"
        }
      ],
      "name": "Released",
      "type": "event"
    },
    {
      "anonymous": false,
      "inputs": [
        {
          "indexed": false,
          "internalType": "uint256",
          "name": "amount",
          "type": "uint256"
        }
      ],
      "name": "Reserved",
      "type": "event"
    },
    {
      "anonymous": false,
      "inputs": [
        {
          "indexed": true,
          "internalType": "address",
          "name": "to",
          "type": "address"
        },
        {
          "indexed": false,
          "internalType": "uint256",
          "name": "amount",
          "type": "uint256"
        }
      ],
      "name": "Withdrawn",
      "type": "event"
    },
    {
      "inputs": [],
      "name": "availableBalance",
      "outputs": [
        {
          "internalType": "uint256",
          "name": "",
          "type": "uint256"
        }
      ],
      "stateMutability": "view",
      "type": "function"
    },
    {
      "inputs": [],
      "name": "balance",
      "outputs": [
        {
          "internalType": "uint256",
          "name": "",
          "type": "uint256"
        }
      ],
      "stateMutability": "view",
      "type": "function"
    },
    {
      "inputs": [
        {
          "internalType": "address",
          "name": "from",
          "type": "address"
        },
        {
          "internalType": "uint256",
          "name": "amount",
          "type": "uint256"
        }
      ],
      "name": "deposit",
      "outputs": [],
      "stateMutability": "nonpayable",
      "type": "function"
    },
    {
      "inputs": [],
      "name": "owner",
      "outputs": [
        {
          "internalType": "address",
          "name": "",
          "type": "address"
        }
      ],
      "stateMutability": "view",
      "type": "function"
    },
    {
      "inputs": [
        {
          "internalType": "uint256",
          "name": "amount",
          "type": "uint256"
        }
      ],
      "name": "release",
      "outputs": [],
      "stateMutability": "nonpayable",
      "type": "function"
    },
    {
      "inputs": [],
      "name": "renounceOwnership",
      "outputs": [],
      "stateMutability": "nonpayable",
      "type": "function"
    },
    {
      "inputs": [
        {
          "internalType": "uint256",
          "name": "amount",
          "type": "uint256"
        }
      ],
      "name": "reserve",
      "outputs": [],
      "stateMutability": "nonpayable",
      "type": "function"
    },
    {
      "inputs": [],
      "name": "totalReserved",
      "outputs": [
        {
          "internalType": "uint256",
          "name": "",
          "type": "uint256"
        }
      ],
      "stateMutability": "view",
      "type": "function"
    },
    {
      "inputs": [
        {
          "internalType": "address",
          "name": "newOwner",
          "type": "address"
        }
      ],
      "name": "transferOwnership",
      "outputs": [],
      "stateMutability": "nonpayable",
      "type": "function"
    },
    {
      "inputs": [],
      "name": "usdc",
      "outputs": [
        {
          "internalType": "contract IERC20",
          "name": "",
          "type": "address"
        }
      ],
      "stateMutability": "view",
      "type": "function"
    },
    {
      "inputs": [
        {
          "internalType": "address",
          "name": "to",
          "type": "address"
        },
        {
          "internalType": "uint256",
          "name": "amount",
          "type": "uint256"
        }
      ],
      "name": "withdraw",
      "outputs": [],
      "stateMutability": "nonpayable",
      "type": "function"
    }
  ],
  "transactionHash": "0x9d306990ab4367603fda05b0cfb2197cdeeb56a8e761577dda47f492450574b0",
  "args": [
    "0x5f89720026332AC218F3f832dE3b7488222aDE9C"
  ],
  "numDeployments": 1,
  "solcInputHash": "c67a2aaa6cba93f4a16f6669d5767cfb",
  "bytecode": "0x60a03461013357601f610ae838819003918201601f19168301916001600160401b038311848410176101385780849260209460405283398101031261013357516001600160a01b0381169081900361013357331561011d5760008054336001600160a01b03198216811783556040519290916001600160a01b0316907f8be0079c531659141344cd1fd0a4f28419497f9722a3daafe3b4186f6b6457e09080a381156100cf5750608052604051610999908161014f823960805181818161014f0152818161061a01526108410152f35b62461bcd60e51b815260206004820152602360248201527f496e7465726573745661756c743a20496e76616c69642055534443206164647260448201526265737360e81b6064820152608490fd5b631e4fbdf760e01b600052600060045260246000fd5b600080fd5b634e487b7160e01b600052604160045260246000fdfe6080604052600436101561001257600080fd5b60003560e01c806337bdc99b1461063e5780633e413bee146105fa57806347e7ef24146104e0578063715018a61461047a578063819b25ba146103875780638da5cb5b14610360578063ab2f0e5114610345578063b69ef8a814610322578063c71b0e1c14610304578063f2fde38b146102555763f3fef3a31461009557600080fd5b34610250576040366003190112610250576100ae610713565b6001600160a01b03602435916100c26108b0565b169081156101e6576100d5811515610729565b6100dd610805565b811161017c5760207f7084f5476618d8e60b11ef0d7d3f06914655adb8793e28ff7f018d4c76d505d5916101736040517fa9059cbb00000000000000000000000000000000000000000000000000000000848201528560248201528260448201526044815261014d6064826107cd565b7f00000000000000000000000000000000000000000000000000000000000000006108f2565b604051908152a2005b608460405162461bcd60e51b815260206004820152602360248201527f496e7465726573745661756c743a20496e73756666696369656e742062616c6160448201527f6e636500000000000000000000000000000000000000000000000000000000006064820152fd5b608460405162461bcd60e51b815260206004820152602160248201527f496e7465726573745661756c743a20496e76616c696420746f2061646472657360448201527f73000000000000000000000000000000000000000000000000000000000000006064820152fd5b600080fd5b34610250576020366003190112610250576001600160a01b03610276610713565b61027e6108b0565b1680156102d5576001600160a01b036000548273ffffffffffffffffffffffffffffffffffffffff19821617600055167f8be0079c531659141344cd1fd0a4f28419497f9722a3daafe3b4186f6b6457e0600080a3005b7f1e4fbdf700000000000000000000000000000000000000000000000000000000600052600060045260246000fd5b34610250576000366003190112610250576020600154604051908152f35b3461025057600036600319011261025057602061033d610805565b604051908152f35b3461025057600036600319011261025057602061033d6107a7565b346102505760003660031901126102505760206001600160a01b0360005416604051908152f35b34610250576020366003190112610250576004356103a36108b0565b6103ae811515610729565b6103b66107a7565b8111610410576001548181018091116103fa577f672216a7a59f7b075c6becc0eebb0ab5404d392281d509c1c1a4a6accd036f4991602091600155604051908152a1005b634e487b7160e01b600052601160045260246000fd5b608460405162461bcd60e51b815260206004820152602d60248201527f496e7465726573745661756c743a20496e73756666696369656e74206176616960448201527f6c61626c652062616c616e6365000000000000000000000000000000000000006064820152fd5b34610250576000366003190112610250576104936108b0565b60006001600160a01b03815473ffffffffffffffffffffffffffffffffffffffff1981168355167f8be0079c531659141344cd1fd0a4f28419497f9722a3daafe3b4186f6b6457e08280a3005b34610250576040366003190112610250576104f9610713565b6001600160a01b036024359161050d6108b0565b16908115610590576020816105447f5af8184bef8e4b45eb9f6ed7734d04da38ced226495548f46e0c8ff8d7d9a524931515610729565b6101736040517f23b872dd00000000000000000000000000000000000000000000000000000000848201528560248201523060448201528260648201526064815261014d6084826107cd565b608460405162461bcd60e51b815260206004820152602360248201527f496e7465726573745661756c743a20496e76616c69642066726f6d206164647260448201527f65737300000000000000000000000000000000000000000000000000000000006064820152fd5b346102505760003660031901126102505760206040516001600160a01b037f0000000000000000000000000000000000000000000000000000000000000000168152f35b346102505760203660031901126102505760043561065a6108b0565b610665811515610729565b6001548082116106a9578161069d7ffb81f9b30d73d830c3544b34d827c08142579ee75710b490bab0b3995468c5659360209361079a565b600155604051908152a1005b608460405162461bcd60e51b815260206004820152602560248201527f496e7465726573745661756c743a20496e76616c69642072656c65617365206160448201527f6d6f756e740000000000000000000000000000000000000000000000000000006064820152fd5b600435906001600160a01b038216820361025057565b1561073057565b608460405162461bcd60e51b815260206004820152602c60248201527f496e7465726573745661756c743a20416d6f756e74206d75737420626520677260448201527f6561746572207468616e203000000000000000000000000000000000000000006064820152fd5b919082039182116103fa57565b6107af610805565b600154808211156107c6576107c39161079a565b90565b5050600090565b90601f8019910116810190811067ffffffffffffffff8211176107ef57604052565b634e487b7160e01b600052604160045260246000fd5b6040517f70a082310000000000000000000000000000000000000000000000000000000081523060048201526020816024816001600160a01b037f0000000000000000000000000000000000000000000000000000000000000000165afa9081156108a457600091610875575090565b90506020813d60201161089c575b81610890602093836107cd565b81010312610250575190565b3d9150610883565b6040513d6000823e3d90fd5b6001600160a01b036000541633036108c457565b7f118cdaa7000000000000000000000000000000000000000000000000000000006000523360045260246000fd5b906000602091828151910182855af1156108a4576000513d61095a57506001600160a01b0381163b155b6109235750565b6001600160a01b03907f5274afe7000000000000000000000000000000000000000000000000000000006000521660045260246000fd5b6001141561091c56fea2646970667358221220b28e18f3160faa6a547ad50b78f0f23b769a7c137bea08566110d26262fdd20864736f6c634300081c0033",
  "devdoc": {
    "details": "Simple vault for holding interest liquidity and penalties",
    "errors": {
      "OwnableInvalidOwner(address)": [
        {
          "details": "The owner is not a valid owner account. (eg. `address(0)`)"
        }
      ],
      "OwnableUnauthorizedAccount(address)": [
        {
          "details": "The caller account is not authorized to perform an operation."
        }
      ],
      "SafeERC20FailedOperation(address)": [
        {
          "details": "An operation with an ERC-20 token failed."
        }
      ]
    },
    "kind": "dev",
    "methods": {
      "availableBalance()": {
        "details": "Get available balance (total - reserved)",
        "returns": {
          "_0": "Available balance for admin withdrawal"
        }
      },
      "balance()": {
        "details": "Get current vault balance",
        "returns": {
          "_0": "Current balance of USDC tokens in vault"
        }
      },
      "constructor": {
        "details": "Initialize InterestVault with USDC address",
        "params": {
          "_usdc": "Address of USDC token contract"
        }
      },
      "deposit(address,uint256)": {
        "details": "Deposit tokens into vault",
        "params": {
          "amount": "Amount of tokens to deposit",
          "from": "Address to transfer tokens from"
        }
      },
      "owner()": {
        "details": "Returns the address of the current owner."
      },
      "release(uint256)": {
        "details": "Release reserved interest",
        "params": {
          "amount": "Amount to release"
        }
      },
      "renounceOwnership()": {
        "details": "Leaves the contract without owner. It will not be possible to call `onlyOwner` functions. Can only be called by the current owner. NOTE: Renouncing ownership will leave the contract without an owner, thereby disabling any functionality that is only available to the owner."
      },
      "reserve(uint256)": {
        "details": "Reserve interest for active deposit",
        "params": {
          "amount": "Amount to reserve"
        }
      },
      "transferOwnership(address)": {
        "details": "Transfers ownership of the contract to a new account (`newOwner`). Can only be called by the current owner."
      },
      "withdraw(address,uint256)": {
        "details": "Withdraw tokens from vault",
        "params": {
          "amount": "Amount of tokens to withdraw",
          "to": "Address to transfer tokens to"
        }
      }
    },
    "stateVariables": {
      "totalReserved": {
        "details": "Total reserved interest for active deposits"
      },
      "usdc": {
        "details": "USDC token contract"
      }
    },
    "title": "InterestVault",
    "version": 1
  },
  "userdoc": {
    "kind": "user",
    "methods": {
      "deposit(address,uint256)": {
        "notice": "Only owner (SavingsBank) can call thisUsed for admin funding AND penalty deposits"
      },
      "release(uint256)": {
        "notice": "Only owner (SavingsBank) can call thisUsed when deposit is withdrawn or cancelled"
      },
      "reserve(uint256)": {
        "notice": "Only owner (SavingsBank) can call thisUsed when user opens deposit to ensure interest is available at maturity"
      },
      "withdraw(address,uint256)": {
        "notice": "Only owner (SavingsBank) can call thisUsed for interest payments to users"
      }
    },
    "notice": "This is a \"dumb\" vault - only stores tokens, no business logic  Key Features: - Holds admin-funded liquidity for interest payments - Receives early withdrawal penalties (penalty boosts liquidity) - Only owner (SavingsBank) can deposit/withdraw - No complex logic - just simple storage",
    "version": 1
  },
  "storageLayout": {
    "storage": [
      {
        "astId": 8,
        "contract": "contracts/InterestVault.sol:InterestVault",
        "label": "_owner",
        "offset": 0,
        "slot": "0",
        "type": "t_address"
      },
      {
        "astId": 9209,
        "contract": "contracts/InterestVault.sol:InterestVault",
        "label": "totalReserved",
        "offset": 0,
        "slot": "1",
        "type": "t_uint256"
      }
    ],
    "types": {
      "t_address": {
        "encoding": "inplace",
        "label": "address",
        "numberOfBytes": "20"
      },
      "t_uint256": {
        "encoding": "inplace",
        "label": "uint256",
        "numberOfBytes": "32"
      }
    }
  }
}