{
  "address": "0xEF08c572e314e0BAbf781C82B5775EAD68c789d4",
  "abi": [
    {
      "inputs": [
        {
          "internalType": "address",
          "name": "_usdc",
          "type": "address"
        }
      ],
      "stateMutability": "nonpayable",
      "type": "constructor"
    },
    {
      "inputs": [
        {
          "internalType": "address",
          "name": "owner",
          "type": "address"
        }
      ],
      "name": "OwnableInvalidOwner",
      "type": "error"
    },
    {
      "inputs": [
        {
          "internalType": "address",
          "name": "account",
          "type": "address"
        }
      ],
      "name": "OwnableUnauthorizedAccount",
      "type": "error"
    },
    {
      "inputs": [
        {
          "internalType": "address",
          "name": "token",
          "type": "address"
        }
      ],
      "name": "SafeERC20FailedOperation",
      "type": "error"
    },
    {
      "anonymous": false,
      "inputs": [
        {
          "indexed": true,
          "internalType": "address",
          "name": "from",
          "type": "address"
        },
        {
          "indexed": false,
          "internalType": "uint256",
          "name": "amount",
          "type": "uint256"
        }
      ],
      "name": "Deposited",
      "type": "event"
    },
    {
      "anonymous": false,
      "inputs": [
        {
          "indexed": true,
          "internalType": "address",
          "name": "previousOwner",
          "type": "address"
        },
        {
          "indexed": true,
          "internalType": "address",
          "name": "newOwner",
          "type": "address"
        }
      ],
      "name": "OwnershipTransferred",
      "type": "event"
    },
    {
      "anonymous": false,
      "inputs": [
        {
          "indexed": true,
          "internalType": "address",
          "name": "to",
          "type": "address"
        },
        {
          "indexed": false,
          "internalType": "uint256",
          "name": "amount",
          "type": "uint256"
        }
      ],
      "name": "Withdrawn",
      "type": "event"
    },
    {
      "inputs": [],
      "name": "balance",
      "outputs": [
        {
          "internalType": "uint256",
          "name": "",
          "type": "uint256"
        }
      ],
      "stateMutability": "view",
      "type": "function"
    },
    {
      "inputs": [
        {
          "internalType": "address",
          "name": "from",
          "type": "address"
        },
        {
          "internalType": "uint256",
          "name": "amount",
          "type": "uint256"
        }
      ],
      "name": "deposit",
      "outputs": [],
      "stateMutability": "nonpayable",
      "type": "function"
    },
    {
      "inputs": [],
      "name": "owner",
      "outputs": [
        {
          "internalType": "address",
          "name": "",
          "type": "address"
        }
      ],
      "stateMutability": "view",
      "type": "function"
    },
    {
      "inputs": [],
      "name": "renounceOwnership",
      "outputs": [],
      "stateMutability": "nonpayable",
      "type": "function"
    },
    {
      "inputs": [
        {
          "internalType": "address",
          "name": "newOwner",
          "type": "address"
        }
      ],
      "name": "transferOwnership",
      "outputs": [],
      "stateMutability": "nonpayable",
      "type": "function"
    },
    {
      "inputs": [],
      "name": "usdc",
      "outputs": [
        {
          "internalType": "contract IERC20",
          "name": "",
          "type": "address"
        }
      ],
      "stateMutability": "view",
      "type": "function"
    },
    {
      "inputs": [
        {
          "internalType": "address",
          "name": "to",
          "type": "address"
        },
        {
          "internalType": "uint256",
          "name": "amount",
          "type": "uint256"
        }
      ],
      "name": "withdraw",
      "outputs": [],
      "stateMutability": "nonpayable",
      "type": "function"
    }
  ],
  "transactionHash": "0xc09e35344fef0a8adc08a7c662391634d3a951e8511fac8b4368f8aabbfbad4c",
  "args": [
    "0x5f89720026332AC218F3f832dE3b7488222aDE9C"
  ],
  "numDeployments": 1,
  "solcInputHash": "c67a2aaa6cba93f4a16f6669d5767cfb",
  "bytecode": "0x60a03461012757601f61082438819003918201601f19168301916001600160401b0383118484101761012c5780849260209460405283398101031261012757516001600160a01b038116908190036101275733156101115760008054336001600160a01b03198216811783556040519290916001600160a01b0316907f8be0079c531659141344cd1fd0a4f28419497f9722a3daafe3b4186f6b6457e09080a381156100cf57506080526040516106e1908161014382396080518181816101260152818161045101526105890152f35b62461bcd60e51b815260206004820181905260248201527f546f6b656e5661756c743a20496e76616c6964205553444320616464726573736044820152606490fd5b631e4fbdf760e01b600052600060045260246000fd5b600080fd5b634e487b7160e01b600052604160045260246000fdfe608080604052600436101561001357600080fd5b60003560e01c9081633e413bee146104335750806347e7ef241461033f578063715018a6146102d95780638da5cb5b146102b2578063b69ef8a81461028f578063f2fde38b146101e05763f3fef3a31461006c57600080fd5b346101db5760403660031901126101db57610085610475565b6001600160a01b03602435916100996105f8565b16908115610197576100ac81151561048b565b6100b461054d565b81116101535760207f7084f5476618d8e60b11ef0d7d3f06914655adb8793e28ff7f018d4c76d505d59161014a6040517fa9059cbb0000000000000000000000000000000000000000000000000000000084820152856024820152826044820152604481526101246064826104fc565b7f000000000000000000000000000000000000000000000000000000000000000061063a565b604051908152a2005b606460405162461bcd60e51b815260206004820152602060248201527f546f6b656e5661756c743a20496e73756666696369656e742062616c616e63656044820152fd5b606460405162461bcd60e51b815260206004820152601e60248201527f546f6b656e5661756c743a20496e76616c696420746f206164647265737300006044820152fd5b600080fd5b346101db5760203660031901126101db576001600160a01b03610201610475565b6102096105f8565b168015610260576001600160a01b036000548273ffffffffffffffffffffffffffffffffffffffff19821617600055167f8be0079c531659141344cd1fd0a4f28419497f9722a3daafe3b4186f6b6457e0600080a3005b7f1e4fbdf700000000000000000000000000000000000000000000000000000000600052600060045260246000fd5b346101db5760003660031901126101db5760206102aa61054d565b604051908152f35b346101db5760003660031901126101db5760206001600160a01b0360005416604051908152f35b346101db5760003660031901126101db576102f26105f8565b60006001600160a01b03815473ffffffffffffffffffffffffffffffffffffffff1981168355167f8be0079c531659141344cd1fd0a4f28419497f9722a3daafe3b4186f6b6457e08280a3005b346101db5760403660031901126101db57610358610475565b6001600160a01b036024359161036c6105f8565b169081156103ef576020816103a37f2da466a7b24304f47e87fa2e1e5a81b9831ce54fec19055ce277ca2f39ba42c493151561048b565b61014a6040517f23b872dd0000000000000000000000000000000000000000000000000000000084820152856024820152306044820152826064820152606481526101246084826104fc565b606460405162461bcd60e51b815260206004820152602060248201527f546f6b656e5661756c743a20496e76616c69642066726f6d20616464726573736044820152fd5b346101db5760003660031901126101db576020906001600160a01b037f0000000000000000000000000000000000000000000000000000000000000000168152f35b600435906001600160a01b03821682036101db57565b1561049257565b608460405162461bcd60e51b815260206004820152602960248201527f546f6b656e5661756c743a20416d6f756e74206d75737420626520677265617460448201527f6572207468616e203000000000000000000000000000000000000000000000006064820152fd5b90601f8019910116810190811067ffffffffffffffff82111761051e57604052565b7f4e487b7100000000000000000000000000000000000000000000000000000000600052604160045260246000fd5b6040517f70a082310000000000000000000000000000000000000000000000000000000081523060048201526020816024816001600160a01b037f0000000000000000000000000000000000000000000000000000000000000000165afa9081156105ec576000916105bd575090565b90506020813d6020116105e4575b816105d8602093836104fc565b810103126101db575190565b3d91506105cb565b6040513d6000823e3d90fd5b6001600160a01b0360005416330361060c57565b7f118cdaa7000000000000000000000000000000000000000000000000000000006000523360045260246000fd5b906000602091828151910182855af1156105ec576000513d6106a257506001600160a01b0381163b155b61066b5750565b6001600160a01b03907f5274afe7000000000000000000000000000000000000000000000000000000006000521660045260246000fd5b6001141561066456fea264697066735822122060c04d5317e8ca4fafd56449117094daec4aaae340ad998d5b42df7d4aa109ba64736f6c634300081c0033",
  "devdoc": {
    "details": "Simple vault for holding user principal deposits",
    "errors": {
      "OwnableInvalidOwner(address)": [
        {
          "details": "The owner is not a valid owner account. (eg. `address(0)`)"
        }
      ],
      "OwnableUnauthorizedAccount(address)": [
        {
          "details": "The caller account is not authorized to perform an operation."
        }
      ],
      "SafeERC20FailedOperation(address)": [
        {
          "details": "An operation with an ERC-20 token failed."
        }
      ]
    },
    "kind": "dev",
    "methods": {
      "balance()": {
        "details": "Get current vault balance",
        "returns": {
          "_0": "Current balance of USDC tokens in vault"
        }
      },
      "constructor": {
        "details": "Initialize TokenVault with USDC address",
        "params": {
          "_usdc": "Address of USDC token contract"
        }
      },
      "deposit(address,uint256)": {
        "details": "Deposit tokens into vault",
        "params": {
          "amount": "Amount of tokens to deposit",
          "from": "Address to transfer tokens from"
        }
      },
      "owner()": {
        "details": "Returns the address of the current owner."
      },
      "renounceOwnership()": {
        "details": "Leaves the contract without owner. It will not be possible to call `onlyOwner` functions. Can only be called by the current owner. NOTE: Renouncing ownership will leave the contract without an owner, thereby disabling any functionality that is only available to the owner."
      },
      "transferOwnership(address)": {
        "details": "Transfers ownership of the contract to a new account (`newOwner`). Can only be called by the current owner."
      },
      "withdraw(address,uint256)": {
        "details": "Withdraw tokens from vault",
        "params": {
          "amount": "Amount of tokens to withdraw",
          "to": "Address to transfer tokens to"
        }
      }
    },
    "stateVariables": {
      "usdc": {
        "details": "USDC token contract"
      }
    },
    "title": "TokenVault",
    "version": 1
  },
  "userdoc": {
    "kind": "user",
    "methods": {
      "deposit(address,uint256)": {
        "notice": "Only owner (SavingsBank) can call this"
      },
      "withdraw(address,uint256)": {
        "notice": "Only owner (SavingsBank) can call this"
      }
    },
    "notice": "This is a \"dumb\" vault - only stores tokens, no business logic  Key Features: - Holds principal deposits from users - Only owner (SavingsBank) can deposit/withdraw - No complex logic - just simple storage",
    "version": 1
  },
  "storageLayout": {
    "storage": [
      {
        "astId": 8,
        "contract": "contracts/TokenVault.sol:TokenVault",
        "label": "_owner",
        "offset": 0,
        "slot": "0",
        "type": "t_address"
      }
    ],
    "types": {
      "t_address": {
        "encoding": "inplace",
        "label": "address",
        "numberOfBytes": "20"
      }
    }
  }
}